:020000020000FC
:0200000006C038
:10000C003EC00FEF0AB900E004B90FEF05B9009339
:10001C006B0001E00093680003E005BD03E0009372
:10002C00810003B10030E9F302D07894A4C0112709
:10003C00222706B50F70302F1AD0009184000F7054
:10004C00302F15D006B5F09084000F0D0F70302FA7
:10005C000ED006B5F09084000F250F70302F07D00E
:10006C000091840000950F70302F01D00895A32FBC
:10007C00383014F426D00895385050D008953327D2
:10008C0091E080E103B10823003009F006C004E0E0
:10009C00300F880F3031A4F4F5CF03B109230030B1
:1000AC0009F007C03395990F303154F4F6CF303145
:1000BC003CF4A32F383014F404D002C038502ED0A6
:1000CC001895002766276395031719F00395660F9B
:1000DC00FBCF1627043034F0762F769576957695EF
:1000EC00769517270370003019F0762F7695172721
:1000FC00032F04303CF4762F770F770F770F770FA1
:10010C00172706C0762F76957695769576952727C0
:10011C000370033011F0660F162708950027662729
:10012C006395031719F00395660FFBCF2627043050
:10013C003CF0762F7695769576957695272706C0A2
:10014C00762F770F770F770F770F17270370003005
:10015C0019F0762F76952727032F043034F4762F59
:10016C00770F770F770F770F27270370033011F076
:10017C00660F2627089506D01217E9F71030D9F725
:10018C0078941FC0012F000F000F000F000F009577
:10019C00017F0BB94ED0012F007F0095027F0BB968
:1001AC0048D0022F000F000F000F000F0095047FA6
:1001BC000BB93FD0022F007F0095087F0BB939D0C7
:1001CC000895F2E0E6E430E1059108304CF0085077
:1001DC0061E0003019F00A95660FFBCF262B07C0A3
:1001EC0061E0003019F00A95660FFBCF162B0FEF6C
:1001FC00F02EC8DFFA94E9F73A9531F733E01FEFA8
:10020C002FEF07D01127222704D03A95C1F7789405
:10021C0008CF48E05FEFF52EB5DFFA94E9F74A9581
:10022C00C9F708954FEF50E15A95F1F74A95D9F770
:10023C00089560E85A95F1F7089500010203070B41
:0A024C000F0E0D0C080405060A0948
:00000001FF
